{
  "_format": "hh-sol-artifact-1",
  "contractName": "ProveRepRegisterVerifier",
  "sourceName": "contracts/ProveRepRegisterVerifier.sol",
  "abi": [
    {
      "inputs": [
        {
          "internalType": "uint256[]",
          "name": "input",
          "type": "uint256[]"
        },
        {
          "internalType": "uint256[8]",
          "name": "_proof",
          "type": "uint256[8]"
        }
      ],
      "name": "verifyProof",
      "outputs": [
        {
          "internalType": "bool",
          "name": "",
          "type": "bool"
        }
      ],
      "stateMutability": "view",
      "type": "function"
    }
  ],
  "bytecode": "0x608060405234801561001057600080fd5b50611124806100206000396000f3fe608060405234801561001057600080fd5b506004361061002b5760003560e01c80637004914414610030575b600080fd5b61004361003e366004610f94565b610057565b604051901515815260200160405180910390f35b6000610061610e20565b6040805180820182528435815260208086013581830152908352815160808082018452868401358285019081526060808901359084015282528351808501855290870135815260a08701358184015281830152838201528151808301835260c0860135815260e0860135918101919091529082015260006100e0610564565b6040805180820190915260008082526020820152835151919250906000805160206110cf8339815191521161015c5760405162461bcd60e51b815260206004820152601760248201527f76657269666965722d61582d6774652d7072696d652d7100000000000000000060448201526064015b60405180910390fd5b8251602001516000805160206110cf833981519152116101be5760405162461bcd60e51b815260206004820152601760248201527f76657269666965722d61592d6774652d7072696d652d710000000000000000006044820152606401610153565b602083015151516000805160206110cf833981519152116102215760405162461bcd60e51b815260206004820152601860248201527f76657269666965722d6258302d6774652d7072696d652d7100000000000000006044820152606401610153565b6020838101510151516000805160206110cf833981519152116102865760405162461bcd60e51b815260206004820152601860248201527f76657269666965722d6259302d6774652d7072696d652d7100000000000000006044820152606401610153565b6020838101515101516000805160206110cf833981519152116102eb5760405162461bcd60e51b815260206004820152601860248201527f76657269666965722d6258312d6774652d7072696d652d7100000000000000006044820152606401610153565b60208381015181015101516000805160206110cf833981519152116103525760405162461bcd60e51b815260206004820152601860248201527f76657269666965722d6259312d6774652d7072696d652d7100000000000000006044820152606401610153565b6040830151516000805160206110cf833981519152116103b45760405162461bcd60e51b815260206004820152601760248201527f76657269666965722d63582d6774652d7072696d652d710000000000000000006044820152606401610153565b6000805160206110cf833981519152836040015160200151106104195760405162461bcd60e51b815260206004820152601760248201527f76657269666965722d63592d6774652d7072696d652d710000000000000000006044820152606401610153565b60005b6004811015610511577f30644e72e131a029b85045b68181585d2833e84879b9709143e1f593f000000188888381811061045857610458611024565b90506020020135106104ac5760405162461bcd60e51b815260206004820152601f60248201527f76657269666965722d6774652d736e61726b2d7363616c61722d6669656c64006044820152606401610153565b6104fd826104f885608001518460016104c59190611050565b600881106104d5576104d5611024565b60200201518b8b868181106104ec576104ec611024565b90506020020135610984565b610a1a565b91508061050981611069565b91505061041c565b50608082015151610523908290610a1a565b90506105596105358460000151610ab3565b84602001518460000151856020015185876040015189604001518960600151610b49565b979650505050505050565b61056c610e71565b6040805180820182527f18355c156ab2b0d668bd20792aeb73e1c745b4ab1cfaa430f08ed2cf279707ac81527f2d25bd21de1ca3f8cff4fa2b20e6346108f6a781d03c53362c76dda42d6046c46020808301919091529083528151608080820184527f126828ebeac0fc2771d45904abb14f86f78c6417f3b87211988c6dbd5a1ecff68285019081527ed35c7ae61620c0166e249e96cd56a855eb142ff2458fa0d4e12ecd2e0f3651606080850191909152908352845180860186527f30639a15ca3d8dda95b651de93455c251ad732441fd8ee5b9c3d8e35c0db7efb81527f1c10cc79680fffb410116cbe7c2d5edb7ce30ea76908ae765e35e15af5a08bd9818601528385015285840192909252835180820185527f198e9393920d483a7260bfb731fb5d25f1aa493335a9e71297e485b7aef312c28186019081527f1800deef121f1e76426a00665e5c4479674322d4f75edadd46debd5cd992f6ed828501528152845180860186527f090689d0585ff075ec9e99ad690c3395bc4b313370b38ef355acdadcd122975b81527f12c85ea5db8c6deb4aab71808dcb408fe3d1e7690c43d37b4ce6cc0166fa7daa818601528185015285850152835180820185527f2c3f90ebd188e72f1d4f181a1499c99df208cc1a093c6cfd168e84e84b631a268186019081527f194a694b2430fb6185a8abca9fab20a99c8efc2d2ddedde528fbfbb2c7a5a489828501528152845180860186527f1f570df7b338554791c3c827c9dd1fe20fac652285c994471fd80d88fb3b6bb881527f09dd60c69df34179e8dfa5bc6d911c4e8fdcd2acb940065a63b569e92707241a818601528185015282860152835180850185527f2e5f6e7cacb38a356c603a073f3ab9152982e3758e1b48339ad98e313572584a81527f26b52c7a0cb5ed388828bd9f3694a657dfcdd59907ccccb52f6651229a2246a881850152818601805191909152845180860186527f1ac3ebac78208de42ccf7baba20b0ea9cc2f5a06a20669a6b4f3af7047183f3d81527f043fdd0f8e8d06fa1b1abfdd44557f5e4a6c8e0fafecce423c9a82fbd8cb43c9818601528151850152845180860186527f08736cc40a4d87ca9206322fceb3552f2cd98c8f06ebbc3d35a04ed985572daa81527f141f275c6e6dbc4451bcc013c385834d76663ac8a0f3afa823d73c12533508fe818601528151860152845180860186527f113da13ff41c0979689d5cf88bdd0228b83d51770c5eead69ef6dec11958cebe81527f1e99f4ed7f34ce1afa7e071c42a451bc5cf74135b63d2932ee61e9a88ebc0a7a8186015281519093019290925283518085019094527f1ebf678929b394313b079038dca9340a212f545cf666a66ea913a2b815ac4f5e84527f2e4379df897c7b9215fa8289cfb96bdfcb61da44c162b0293a805ae7b7ecf0f79284019290925251015290565b60408051808201909152600080825260208201526109a0610ec2565b835181526020808501519082015260408101839052600060608360808460076107d05a03fa905080806109cf57fe5b5080610a125760405162461bcd60e51b81526020600482015260126024820152711c185a5c9a5b99cb5b5d5b0b59985a5b195960721b6044820152606401610153565b505092915050565b6040805180820190915260008082526020820152610a36610ee0565b8351815260208085015181830152835160408301528301516060808301919091526000908360c08460066107d05a03fa90508080610a7057fe5b5080610a125760405162461bcd60e51b81526020600482015260126024820152711c185a5c9a5b99cb5859190b59985a5b195960721b6044820152606401610153565b60408051808201909152600080825260208201528151158015610ad857506020820151155b15610af6575050604080518082019091526000808252602082015290565b6040518060400160405280836000015181526020016000805160206110cf8339815191528460200151610b299190611082565b610b41906000805160206110cf8339815191526110a4565b905292915050565b60408051608080820183528a825260208083018a90528284018890526060808401879052845192830185528b83528282018a9052828501889052820185905283516018808252610320820190955260009491859190839082016103008036833701905050905060005b6004811015610d9d576000610bc88260066110b7565b9050858260048110610bdc57610bdc611024565b60200201515183610bee836000611050565b81518110610bfe57610bfe611024565b602002602001018181525050858260048110610c1c57610c1c611024565b60200201516020015183826001610c339190611050565b81518110610c4357610c43611024565b602002602001018181525050848260048110610c6157610c61611024565b6020020151515183610c74836002611050565b81518110610c8457610c84611024565b602002602001018181525050848260048110610ca257610ca2611024565b6020020151516001602002015183610cbb836003611050565b81518110610ccb57610ccb611024565b602002602001018181525050848260048110610ce957610ce9611024565b602002015160200151600060028110610d0457610d04611024565b602002015183610d15836004611050565b81518110610d2557610d25611024565b602002602001018181525050848260048110610d4357610d43611024565b602002015160200151600160028110610d5e57610d5e611024565b602002015183610d6f836005611050565b81518110610d7f57610d7f611024565b60209081029190910101525080610d9581611069565b915050610bb2565b50610da6610efe565b6000602082602086026020860160086107d05a03fa90508080610dc557fe5b5080610e0b5760405162461bcd60e51b81526020600482015260156024820152741c185a5c9a5b99cb5bdc18dbd9194b59985a5b1959605a1b6044820152606401610153565b505115159d9c50505050505050505050505050565b6040805160a081019091526000606082018181526080830191909152815260208101610e4a610f1c565b8152602001610e6c604051806040016040528060008152602001600081525090565b905290565b6040805160e08101909152600060a0820181815260c0830191909152815260208101610e9b610f1c565b8152602001610ea8610f1c565b8152602001610eb5610f1c565b8152602001610e6c610f3c565b60405180606001604052806003906020820280368337509192915050565b60405180608001604052806004906020820280368337509192915050565b60405180602001604052806001906020820280368337509192915050565b6040518060400160405280610f2f610f76565b8152602001610e6c610f76565b6040518061010001604052806008905b6040805180820190915260008082526020820152815260200190600190039081610f4c5790505090565b60405180604001604052806002906020820280368337509192915050565b6000806000610120808587031215610fab57600080fd5b843567ffffffffffffffff80821115610fc357600080fd5b818701915087601f830112610fd757600080fd5b813581811115610fe657600080fd5b8860208260051b8501011115610ffb57600080fd5b60208301965080955050505085818601111561101657600080fd5b506020840190509250925092565b634e487b7160e01b600052603260045260246000fd5b634e487b7160e01b600052601160045260246000fd5b808201808211156110635761106361103a565b92915050565b60006001820161107b5761107b61103a565b5060010190565b60008261109f57634e487b7160e01b600052601260045260246000fd5b500690565b818103818111156110635761106361103a565b80820281158282048414176110635761106361103a56fe30644e72e131a029b85045b68181585d97816a916871ca8d3c208c16d87cfd47a2646970667358221220883a149848e3416fe3c4facbaadaf82b96bcc99be25bea64923540598e7203fb64736f6c63430008110033",
  "linkReferences": {},
  "deployedLinkReferences": {}
}