{
  "_format": "hh-sol-artifact-1",
  "contractName": "UnirepApp",
  "sourceName": "contracts/UnirepApp.sol",
  "abi": [
    {
      "inputs": [
        {
          "internalType": "contract Unirep",
          "name": "_unirep",
          "type": "address"
        },
        {
          "internalType": "contract ProveRepRegisterVerifier",
          "name": "_proveRepRegisterVerifier",
          "type": "address"
        },
        {
          "internalType": "uint256",
          "name": "_epochLength",
          "type": "uint256"
        }
      ],
      "stateMutability": "nonpayable",
      "type": "constructor"
    },
    {
      "inputs": [],
      "name": "AttesterInvalid",
      "type": "error"
    },
    {
      "inputs": [],
      "name": "InvalidEpochKey",
      "type": "error"
    },
    {
      "inputs": [],
      "name": "InvalidProof",
      "type": "error"
    },
    {
      "inputs": [],
      "name": "attesterCurrentEpoch",
      "outputs": [
        {
          "internalType": "uint256",
          "name": "",
          "type": "uint256"
        }
      ],
      "stateMutability": "view",
      "type": "function"
    },
    {
      "inputs": [],
      "name": "attesterEpochRemainingTime",
      "outputs": [
        {
          "internalType": "uint256",
          "name": "",
          "type": "uint256"
        }
      ],
      "stateMutability": "view",
      "type": "function"
    },
    {
      "inputs": [
        {
          "internalType": "uint160",
          "name": "attesterId",
          "type": "uint160"
        }
      ],
      "name": "attesterStartTimestamp",
      "outputs": [
        {
          "internalType": "uint256",
          "name": "",
          "type": "uint256"
        }
      ],
      "stateMutability": "view",
      "type": "function"
    },
    {
      "inputs": [],
      "name": "proveRepRegisterVerifier",
      "outputs": [
        {
          "internalType": "contract ProveRepRegisterVerifier",
          "name": "",
          "type": "address"
        }
      ],
      "stateMutability": "view",
      "type": "function"
    },
    {
      "inputs": [],
      "name": "stateTreeDepth",
      "outputs": [
        {
          "internalType": "uint8",
          "name": "",
          "type": "uint8"
        }
      ],
      "stateMutability": "view",
      "type": "function"
    },
    {
      "inputs": [
        {
          "internalType": "uint256",
          "name": "targetEpoch",
          "type": "uint256"
        },
        {
          "internalType": "uint256",
          "name": "epochKey",
          "type": "uint256"
        },
        {
          "internalType": "uint256",
          "name": "posRep",
          "type": "uint256"
        },
        {
          "internalType": "uint256",
          "name": "negRep",
          "type": "uint256"
        },
        {
          "internalType": "uint256",
          "name": "graffiti",
          "type": "uint256"
        }
      ],
      "name": "submitAttestation",
      "outputs": [],
      "stateMutability": "nonpayable",
      "type": "function"
    },
    {
      "inputs": [],
      "name": "unirep",
      "outputs": [
        {
          "internalType": "contract Unirep",
          "name": "",
          "type": "address"
        }
      ],
      "stateMutability": "view",
      "type": "function"
    },
    {
      "inputs": [
        {
          "internalType": "uint256[]",
          "name": "publicSignals",
          "type": "uint256[]"
        },
        {
          "internalType": "uint256[8]",
          "name": "proof",
          "type": "uint256[8]"
        }
      ],
      "name": "userSignUp",
      "outputs": [],
      "stateMutability": "nonpayable",
      "type": "function"
    },
    {
      "inputs": [
        {
          "internalType": "uint256[]",
          "name": "publicSignals",
          "type": "uint256[]"
        },
        {
          "internalType": "uint256[8]",
          "name": "proof",
          "type": "uint256[8]"
        }
      ],
      "name": "verifyRepRegisterProof",
      "outputs": [],
      "stateMutability": "nonpayable",
      "type": "function"
    }
  ],
  "bytecode": "0x608060405234801561001057600080fd5b50604051610a0f380380610a0f83398101604081905261002f916100d4565b600080546001600160a01b038086166001600160a01b031992831681179093556001805491861691909216179055604051632e4ec57d60e11b8152635c9d8afa9061008290849060040190815260200190565b600060405180830381600087803b15801561009c57600080fd5b505af11580156100b0573d6000803e3d6000fd5b50505050505050610117565b6001600160a01b03811681146100d157600080fd5b50565b6000806000606084860312156100e957600080fd5b83516100f4816100bc565b6020850151909350610105816100bc565b80925050604084015190509250925092565b6108e9806101266000396000f3fe608060405234801561001057600080fd5b50600436106100935760003560e01c8063b4d7b9e311610066578063b4d7b9e3146100f5578063bfebc7ec14610108578063e065453314610133578063f788540114610146578063f85ec78f1461014e57600080fd5b80634144f05114610098578063652c76e4146100ad5780639cbda428146100cc578063ab768edc146100df575b600080fd5b6100ab6100a63660046106a9565b610161565b005b6100b56101c9565b60405160ff90911681526020015b60405180910390f35b6100ab6100da3660046106a9565b610246565b6100e761045f565b6040519081526020016100c3565b6100ab610103366004610763565b6104cd565b60015461011b906001600160a01b031681565b6040516001600160a01b0390911681526020016100c3565b6100e761014136600461079e565b61054e565b6100e76105c3565b60005461011b906001600160a01b031681565b600054604051634144f05160e01b81526001600160a01b0390911690634144f0519061019390859085906004016107ce565b600060405180830381600087803b1580156101ad57600080fd5b505af11580156101c1573d6000803e3d6000fd5b505050505050565b60008060009054906101000a90046001600160a01b03166001600160a01b031663652c76e46040518163ffffffff1660e01b8152600401602060405180830381865afa15801561021d573d6000803e3d6000fd5b505050506040513d601f19601f82011682018060405250810190610241919061083f565b905090565b600154604051631c01245160e21b81526000916001600160a01b03169063700491449061027990869086906004016107ce565b602060405180830381865afa158015610296573d6000803e3d6000fd5b505050506040513d601f19601f820116820180604052508101906102ba9190610862565b9050806102da576040516309bde33960e01b815260040160405180910390fd5b60008054906101000a90046001600160a01b03166001600160a01b0316638728f5b26040518163ffffffff1660e01b8152600401602060405180830381865afa15801561032b573d6000803e3d6000fd5b505050506040513d601f19601f8201168201806040525081019061034f9190610884565b836000815181106103625761036261089d565b60200260200101511061038857604051630885eeef60e21b815260040160405180910390fd5b6001600160a01b038016836003815181106103a5576103a561089d565b6020026020010151106103cb5760405163d7aa584760e01b815260040160405180910390fd5b60005483516001600160a01b0390911690630f44b1ec90859060039081106103f5576103f561089d565b60200260200101516040518263ffffffff1660e01b815260040161042891906001600160a01b0391909116815260200190565b600060405180830381600087803b15801561044257600080fd5b505af1158015610456573d6000803e3d6000fd5b50505050505050565b6000805460405163983c9cdb60e01b81523060048201526001600160a01b039091169063983c9cdb906024015b602060405180830381865afa1580156104a9573d6000803e3d6000fd5b505050506040513d601f19601f820116820180604052508101906102419190610884565b60005460405163b4d7b9e360e01b815260048101879052602481018690526044810185905260648101849052608481018390526001600160a01b039091169063b4d7b9e39060a401600060405180830381600087803b15801561052f57600080fd5b505af1158015610543573d6000803e3d6000fd5b505050505050505050565b6000805460405163e065453360e01b81526001600160a01b0384811660048301529091169063e065453390602401602060405180830381865afa158015610599573d6000803e3d6000fd5b505050506040513d601f19601f820116820180604052508101906105bd9190610884565b92915050565b60008054604051633d43c18b60e21b81523060048201526001600160a01b039091169063f50f062c9060240161048c565b634e487b7160e01b600052604160045260246000fd5b604051601f8201601f1916810167ffffffffffffffff81118282101715610633576106336105f4565b604052919050565b600082601f83011261064c57600080fd5b60405161010080820182811067ffffffffffffffff82111715610671576106716105f4565b6040528301818582111561068457600080fd5b845b8281101561069e578035825260209182019101610686565b509195945050505050565b60008061012083850312156106bd57600080fd5b823567ffffffffffffffff808211156106d557600080fd5b818501915085601f8301126106e957600080fd5b81356020828211156106fd576106fd6105f4565b8160051b925061070e81840161060a565b828152928401810192818101908985111561072857600080fd5b948201945b848610156107465785358252948201949082019061072d565b965061075690508888830161063b565b9450505050509250929050565b600080600080600060a0868803121561077b57600080fd5b505083359560208501359550604085013594606081013594506080013592509050565b6000602082840312156107b057600080fd5b81356001600160a01b03811681146107c757600080fd5b9392505050565b6101208082528351908201819052600090610140830190602090818701845b82811015610809578151855293830193908301906001016107ed565b509293505083810191508460005b600881101561083457815184529282019290820190600101610817565b505050509392505050565b60006020828403121561085157600080fd5b815160ff811681146107c757600080fd5b60006020828403121561087457600080fd5b815180151581146107c757600080fd5b60006020828403121561089657600080fd5b5051919050565b634e487b7160e01b600052603260045260246000fdfea2646970667358221220df5020f421104a0c293f75a6f7c2783b025df8ee22c6fe169cb17e774504f3c264736f6c63430008110033",
  "linkReferences": {},
  "deployedLinkReferences": {}
}